{
  "contractName": "Hercules",
  "abi": [
    {
      "anonymous": false,
      "inputs": [
        {
          "indexed": false,
          "internalType": "address payable",
          "name": "deployer",
          "type": "address"
        },
        {
          "indexed": false,
          "internalType": "address payable",
          "name": "user",
          "type": "address"
        },
        {
          "indexed": false,
          "internalType": "uint256",
          "name": "units",
          "type": "uint256"
        },
        {
          "indexed": false,
          "internalType": "uint256",
          "name": "amount",
          "type": "uint256"
        }
      ],
      "name": "billPaid",
      "type": "event"
    },
    {
      "anonymous": false,
      "inputs": [
        {
          "indexed": false,
          "internalType": "address payable",
          "name": "userAddress",
          "type": "address"
        },
        {
          "indexed": false,
          "internalType": "uint256",
          "name": "units",
          "type": "uint256"
        }
      ],
      "name": "unitsAdded",
      "type": "event"
    },
    {
      "anonymous": false,
      "inputs": [
        {
          "indexed": false,
          "internalType": "address payable",
          "name": "userAddress",
          "type": "address"
        },
        {
          "indexed": false,
          "internalType": "uint256",
          "name": "units",
          "type": "uint256"
        }
      ],
      "name": "userInitialized",
      "type": "event"
    },
    {
      "constant": true,
      "inputs": [
        {
          "internalType": "uint256",
          "name": "",
          "type": "uint256"
        }
      ],
      "name": "users",
      "outputs": [
        {
          "internalType": "address payable",
          "name": "userAddress",
          "type": "address"
        },
        {
          "internalType": "uint256",
          "name": "units",
          "type": "uint256"
        }
      ],
      "payable": false,
      "stateMutability": "view",
      "type": "function"
    },
    {
      "constant": false,
      "inputs": [],
      "name": "initialzeUser",
      "outputs": [],
      "payable": false,
      "stateMutability": "nonpayable",
      "type": "function"
    },
    {
      "constant": false,
      "inputs": [
        {
          "internalType": "uint256",
          "name": "_id",
          "type": "uint256"
        },
        {
          "internalType": "uint256",
          "name": "_units",
          "type": "uint256"
        }
      ],
      "name": "addUnit",
      "outputs": [],
      "payable": false,
      "stateMutability": "nonpayable",
      "type": "function"
    },
    {
      "constant": false,
      "inputs": [
        {
          "internalType": "uint256",
          "name": "_id",
          "type": "uint256"
        }
      ],
      "name": "payBill",
      "outputs": [],
      "payable": true,
      "stateMutability": "payable",
      "type": "function"
    }
  ],
  "bytecode": "0x60806040526000805534801561001457600080fd5b50610697806100246000396000f3fe60806040526004361061003f5760003560e01c806315f8561114610044578063365b98b2146100895780636e8f061f1461010b578063f097519014610122575b600080fd5b34801561005057600080fd5b506100876004803603604081101561006757600080fd5b810190808035906020019092919080359060200190929190505050610150565b005b34801561009557600080fd5b506100c2600480360360208110156100ac57600080fd5b810190808035906020019092919050505061031a565b604051808373ffffffffffffffffffffffffffffffffffffffff1673ffffffffffffffffffffffffffffffffffffffff1681526020018281526020019250505060405180910390f35b34801561011757600080fd5b5061012061035e565b005b61014e6004803603602081101561013857600080fd5b810190808035906020019092919050505061049d565b005b600081101561015e57600080fd5b610166610632565b600160008481526020019081526020016000206040518060400160405290816000820160009054906101000a900473ffffffffffffffffffffffffffffffffffffffff1673ffffffffffffffffffffffffffffffffffffffff1673ffffffffffffffffffffffffffffffffffffffff168152602001600182015481525050905081816020015101816020018181525050806001600085815260200190815260200160002060008201518160000160006101000a81548173ffffffffffffffffffffffffffffffffffffffff021916908373ffffffffffffffffffffffffffffffffffffffff160217905550602082015181600101559050507f67e297ce148baa913004962a221038182733513c90bed1844b68af987d2793506001600085815260200190815260200160002060000160009054906101000a900473ffffffffffffffffffffffffffffffffffffffff166001600086815260200190815260200160002060010154604051808373ffffffffffffffffffffffffffffffffffffffff1673ffffffffffffffffffffffffffffffffffffffff1681526020018281526020019250505060405180910390a1505050565b60016020528060005260406000206000915090508060000160009054906101000a900473ffffffffffffffffffffffffffffffffffffffff16908060010154905082565b600080815480929190600101919050555033600160008054815260200190815260200160002060000160006101000a81548173ffffffffffffffffffffffffffffffffffffffff021916908373ffffffffffffffffffffffffffffffffffffffff16021790555060006001600080548152602001908152602001600020600101819055507f6df3ad95c23c202954afb9cbdc58c86e48153ae3a9034ecb4d023bc515565139600160008054815260200190815260200160002060000160009054906101000a900473ffffffffffffffffffffffffffffffffffffffff16600160008054815260200190815260200160002060010154604051808373ffffffffffffffffffffffffffffffffffffffff1673ffffffffffffffffffffffffffffffffffffffff1681526020018281526020019250505060405180910390a1565b60006001600080815260200190815260200160002060000160009054906101000a900473ffffffffffffffffffffffffffffffffffffffff1690508073ffffffffffffffffffffffffffffffffffffffff166108fc349081150290604051600060405180830381858888f1935050505015801561051e573d6000803e3d6000fd5b50600060016000848152602001908152602001600020600101819055507ffe539287667ef49d7f5f2e89cd5d465dbd29487a2015b6a73b6ea1f3abf33e96816001600085815260200190815260200160002060000160009054906101000a900473ffffffffffffffffffffffffffffffffffffffff16600160008681526020019081526020016000206001015434604051808573ffffffffffffffffffffffffffffffffffffffff1673ffffffffffffffffffffffffffffffffffffffff1681526020018473ffffffffffffffffffffffffffffffffffffffff1673ffffffffffffffffffffffffffffffffffffffff16815260200183815260200182815260200194505050505060405180910390a15050565b6040518060400160405280600073ffffffffffffffffffffffffffffffffffffffff16815260200160008152509056fea265627a7a7231582074e23b50149a30ce3cdbba278e645ba6988f6b39d3aaf6153c1bf70f77c8810a64736f6c63430005100032",
  "source": "pragma solidity ^0.5.0;\n\ncontract Hercules {\n    uint userCount=0;\n    mapping(uint => User) public users;\n\n    struct User {\n        address payable userAddress;\n        uint units;\n    }\n\n    event userInitialized(\n        address payable userAddress, \n        uint units\n    );\n\n    event unitsAdded (\n        address payable userAddress, \n        uint units\n    );\n\n    event billPaid (\n        address payable deployer,\n        address payable user,\n        uint units,\n        uint amount\n    );\n\n    function initialzeUser() public {\n        userCount++;\n        users[userCount].userAddress=msg.sender;\n        users[userCount].units=0;\n        emit userInitialized(users[userCount].userAddress,users[userCount].units);\n    }\n    function addUnit(uint _id, uint _units) public {\n        require(_units >= 0);\n        User memory _user = users[_id];\n        _user.units = _user.units + _units;\n        users[_id] = _user;\n        emit unitsAdded(users[_id].userAddress,users[_id].units);\n    }\n    function payBill(uint _id) public payable {\n        address payable _deployer = users[0].userAddress;\n        address(_deployer).transfer(msg.value);\n        users[_id].units=0;\n        emit billPaid(_deployer,users[_id].userAddress,users[_id].units,msg.value);\n    }\n}\n",
  "sourcePath": "/home/alan/Projects/blockchain/Hercules/src/contracts/Hercules.sol",
  "compiler": {
    "name": "solc",
    "version": "0.5.16+commit.9c3226ce.Emscripten.clang"
  },
  "schemaVersion": "3.2.0",
  "updatedAt": "2020-09-19T05:38:43.388Z",
  "networkType": "ethereum",
  "devdoc": {
    "methods": {}
  },
  "userdoc": {
    "methods": {}
  }
}