{
  "contractName": "Hercules",
  "abi": [
    {
      "anonymous": false,
      "inputs": [
        {
          "indexed": false,
          "internalType": "uint256",
          "name": "powerConsmed",
          "type": "uint256"
        },
        {
          "indexed": false,
          "internalType": "address",
          "name": "user",
          "type": "address"
        }
      ],
      "name": "unitsAdded",
      "type": "event"
    },
    {
      "anonymous": false,
      "inputs": [
        {
          "indexed": false,
          "internalType": "uint256",
          "name": "powerConsmed",
          "type": "uint256"
        },
        {
          "indexed": false,
          "internalType": "address",
          "name": "user",
          "type": "address"
        }
      ],
      "name": "userInitialized",
      "type": "event"
    },
    {
      "constant": true,
      "inputs": [
        {
          "internalType": "address",
          "name": "",
          "type": "address"
        }
      ],
      "name": "powerConsumed",
      "outputs": [
        {
          "internalType": "uint256",
          "name": "",
          "type": "uint256"
        }
      ],
      "payable": false,
      "stateMutability": "view",
      "type": "function"
    },
    {
      "constant": false,
      "inputs": [],
      "name": "initialzeUser",
      "outputs": [],
      "payable": false,
      "stateMutability": "nonpayable",
      "type": "function"
    },
    {
      "constant": false,
      "inputs": [
        {
          "internalType": "uint256",
          "name": "_units",
          "type": "uint256"
        }
      ],
      "name": "addUnit",
      "outputs": [],
      "payable": false,
      "stateMutability": "nonpayable",
      "type": "function"
    }
  ],
  "bytecode": "0x608060405234801561001057600080fd5b506102dd806100206000396000f3fe608060405234801561001057600080fd5b50600436106100415760003560e01c8063341dc9f3146100465780636e8f061f14610074578063d6dfe8c81461007e575b600080fd5b6100726004803603602081101561005c57600080fd5b81019080803590602001909291905050506100d6565b005b61007c6101de565b005b6100c06004803603602081101561009457600080fd5b81019080803573ffffffffffffffffffffffffffffffffffffffff169060200190929190505050610290565b6040518082815260200191505060405180910390f35b60008110156100e457600080fd5b60008060003373ffffffffffffffffffffffffffffffffffffffff1673ffffffffffffffffffffffffffffffffffffffff1681526020019081526020016000205490508181019050806000803373ffffffffffffffffffffffffffffffffffffffff1673ffffffffffffffffffffffffffffffffffffffff168152602001908152602001600020819055507f5c7c07491d76bbef266ec710d91b2187f3dfc69cc72c7e27f69f5ebdacedd4cc8133604051808381526020018273ffffffffffffffffffffffffffffffffffffffff1673ffffffffffffffffffffffffffffffffffffffff1681526020019250505060405180910390a15050565b60008060003373ffffffffffffffffffffffffffffffffffffffff1673ffffffffffffffffffffffffffffffffffffffff168152602001908152602001600020819055507f3a20ed30eb80880a3a564af47d32d852f99efc5093689a6d66ce44758411745c600033604051808381526020018273ffffffffffffffffffffffffffffffffffffffff1673ffffffffffffffffffffffffffffffffffffffff1681526020019250505060405180910390a1565b6000602052806000526040600020600091509050548156fea265627a7a723158202726b01b354ea15ec49ea0551b0fa83bec8bac954c5db93497e89b0252a28f0e64736f6c63430005100032",
  "source": "pragma solidity ^0.5.0;\n\ncontract Hercules {\n    mapping(address => uint) public powerConsumed;\n\n    event userInitialized(\n        uint powerConsmed,\n        address user \n    );\n\n    event unitsAdded (\n        uint powerConsmed,\n        address user \n    );\n\n    function initialzeUser() public {\n        powerConsumed[msg.sender]=0;\n        emit userInitialized(0,msg.sender);\n    }\n    function addUnit(uint _units) public {\n        require(_units >= 0);\n        uint _power = powerConsumed[msg.sender];\n        _power = _power + _units;\n        powerConsumed[msg.sender] = _power;\n        emit unitsAdded(_power,msg.sender);\n    }\n}\n",
  "sourcePath": "/home/alan/Projects/blockchain/Hercules/src/contracts/Hercules.sol",
  "compiler": {
    "name": "solc",
    "version": "0.5.16+commit.9c3226ce.Emscripten.clang"
  },
  "schemaVersion": "3.2.0",
  "updatedAt": "2020-09-18T19:46:00.910Z",
  "networkType": "ethereum",
  "devdoc": {
    "methods": {}
  },
  "userdoc": {
    "methods": {}
  }
}