{
  "contractName": "Hercules",
  "abi": [
    {
      "inputs": [],
      "payable": false,
      "stateMutability": "nonpayable",
      "type": "constructor"
    },
    {
      "anonymous": false,
      "inputs": [
        {
          "indexed": false,
          "internalType": "address payable",
          "name": "deployer",
          "type": "address"
        },
        {
          "indexed": false,
          "internalType": "address payable",
          "name": "user",
          "type": "address"
        },
        {
          "indexed": false,
          "internalType": "uint256",
          "name": "amount",
          "type": "uint256"
        }
      ],
      "name": "billPaid",
      "type": "event"
    },
    {
      "anonymous": false,
      "inputs": [
        {
          "indexed": false,
          "internalType": "address payable",
          "name": "userAddress",
          "type": "address"
        },
        {
          "indexed": false,
          "internalType": "uint256",
          "name": "units",
          "type": "uint256"
        }
      ],
      "name": "unitsAdded",
      "type": "event"
    },
    {
      "anonymous": false,
      "inputs": [
        {
          "indexed": false,
          "internalType": "uint256",
          "name": "id",
          "type": "uint256"
        },
        {
          "indexed": false,
          "internalType": "address payable",
          "name": "userAddress",
          "type": "address"
        },
        {
          "indexed": false,
          "internalType": "uint256",
          "name": "units",
          "type": "uint256"
        }
      ],
      "name": "userInitialized",
      "type": "event"
    },
    {
      "constant": true,
      "inputs": [],
      "name": "corporation",
      "outputs": [
        {
          "internalType": "address payable",
          "name": "",
          "type": "address"
        }
      ],
      "payable": false,
      "stateMutability": "view",
      "type": "function"
    },
    {
      "constant": true,
      "inputs": [],
      "name": "uCount",
      "outputs": [
        {
          "internalType": "uint256",
          "name": "",
          "type": "uint256"
        }
      ],
      "payable": false,
      "stateMutability": "view",
      "type": "function"
    },
    {
      "constant": true,
      "inputs": [
        {
          "internalType": "uint256",
          "name": "",
          "type": "uint256"
        }
      ],
      "name": "users",
      "outputs": [
        {
          "internalType": "address payable",
          "name": "userAddress",
          "type": "address"
        },
        {
          "internalType": "uint256",
          "name": "units",
          "type": "uint256"
        }
      ],
      "payable": false,
      "stateMutability": "view",
      "type": "function"
    },
    {
      "constant": false,
      "inputs": [],
      "name": "initializeUser",
      "outputs": [],
      "payable": false,
      "stateMutability": "nonpayable",
      "type": "function"
    },
    {
      "constant": false,
      "inputs": [
        {
          "internalType": "uint256",
          "name": "_units",
          "type": "uint256"
        }
      ],
      "name": "addUnit",
      "outputs": [],
      "payable": false,
      "stateMutability": "nonpayable",
      "type": "function"
    },
    {
      "constant": false,
      "inputs": [],
      "name": "payBill",
      "outputs": [],
      "payable": true,
      "stateMutability": "payable",
      "type": "function"
    }
  ],
  "bytecode": "0x608060405234801561001057600080fd5b5033600160006101000a81548173ffffffffffffffffffffffffffffffffffffffff021916908373ffffffffffffffffffffffffffffffffffffffff160217905550610867806100616000396000f3fe6080604052600436106100555760003560e01c8063341dc9f31461005a578063365b98b2146100955780634b353888146101175780637a7816581461012e5780637bc8924b14610138578063e25c4cf514610163575b600080fd5b34801561006657600080fd5b506100936004803603602081101561007d57600080fd5b81019080803590602001909291905050506101ba565b005b3480156100a157600080fd5b506100ce600480360360208110156100b857600080fd5b81019080803590602001909291905050506103c2565b604051808373ffffffffffffffffffffffffffffffffffffffff1673ffffffffffffffffffffffffffffffffffffffff1681526020018281526020019250505060405180910390f35b34801561012357600080fd5b5061012c610406565b005b610136610523565b005b34801561014457600080fd5b5061014d6107d6565b6040518082815260200191505060405180910390f35b34801561016f57600080fd5b506101786107dc565b604051808273ffffffffffffffffffffffffffffffffffffffff1673ffffffffffffffffffffffffffffffffffffffff16815260200191505060405180910390f35b60008110156101c857600080fd5b60006101d2610802565b600191505b60005482116102da573373ffffffffffffffffffffffffffffffffffffffff166002600084815260200190815260200160002060000160009054906101000a900473ffffffffffffffffffffffffffffffffffffffff1673ffffffffffffffffffffffffffffffffffffffff1614156102cf57600260008381526020019081526020016000206040518060400160405290816000820160009054906101000a900473ffffffffffffffffffffffffffffffffffffffff1673ffffffffffffffffffffffffffffffffffffffff1673ffffffffffffffffffffffffffffffffffffffff16815260200160018201548152505090506102da565b8160010191506101d7565b82816020015101816020018181525050806002600084815260200190815260200160002060008201518160000160006101000a81548173ffffffffffffffffffffffffffffffffffffffff021916908373ffffffffffffffffffffffffffffffffffffffff160217905550602082015181600101559050507f67e297ce148baa913004962a221038182733513c90bed1844b68af987d2793503384604051808373ffffffffffffffffffffffffffffffffffffffff1673ffffffffffffffffffffffffffffffffffffffff1681526020018281526020019250505060405180910390a1505050565b60026020528060005260406000206000915090508060000160009054906101000a900473ffffffffffffffffffffffffffffffffffffffff16908060010154905082565b600080815480929190600101919050555060405180604001604052803373ffffffffffffffffffffffffffffffffffffffff1681526020016000815250600260008054815260200190815260200160002060008201518160000160006101000a81548173ffffffffffffffffffffffffffffffffffffffff021916908373ffffffffffffffffffffffffffffffffffffffff160217905550602082015181600101559050507fdee422879ee893c447f80ab59301c0983b5967aa619d66ddb326481b6efe2baa600054336000604051808481526020018373ffffffffffffffffffffffffffffffffffffffff1673ffffffffffffffffffffffffffffffffffffffff168152602001828152602001935050505060405180910390a1565b600160009054906101000a900473ffffffffffffffffffffffffffffffffffffffff1673ffffffffffffffffffffffffffffffffffffffff166108fc349081150290604051600060405180830381858888f1935050505015801561058b573d6000803e3d6000fd5b506000610596610802565b600191505b600054821161069e573373ffffffffffffffffffffffffffffffffffffffff166002600084815260200190815260200160002060000160009054906101000a900473ffffffffffffffffffffffffffffffffffffffff1673ffffffffffffffffffffffffffffffffffffffff16141561069357600260008381526020019081526020016000206040518060400160405290816000820160009054906101000a900473ffffffffffffffffffffffffffffffffffffffff1673ffffffffffffffffffffffffffffffffffffffff1673ffffffffffffffffffffffffffffffffffffffff168152602001600182015481525050905061069e565b81600101915061059b565b6000816020018181525050806002600084815260200190815260200160002060008201518160000160006101000a81548173ffffffffffffffffffffffffffffffffffffffff021916908373ffffffffffffffffffffffffffffffffffffffff160217905550602082015181600101559050507fc217499589f3ec1d5b2891594c80d8e6493c0ea24a503908b460cc5a806e9f69600160009054906101000a900473ffffffffffffffffffffffffffffffffffffffff163334604051808473ffffffffffffffffffffffffffffffffffffffff1673ffffffffffffffffffffffffffffffffffffffff1681526020018373ffffffffffffffffffffffffffffffffffffffff1673ffffffffffffffffffffffffffffffffffffffff168152602001828152602001935050505060405180910390a15050565b60005481565b600160009054906101000a900473ffffffffffffffffffffffffffffffffffffffff1681565b6040518060400160405280600073ffffffffffffffffffffffffffffffffffffffff16815260200160008152509056fea265627a7a72315820e3a20c98332ce49f5b9c84a041372bcd3aa4aa04372c8e1fd4224389758e414364736f6c63430005100032",
  "source": "pragma solidity >=0.5.0;\r\n\r\ncontract Hercules {\r\n    uint public uCount;\r\n    address payable public corporation;\r\n\r\n    constructor() public {\r\n        corporation = msg.sender;\r\n    }\r\n\r\n    mapping(uint => User) public users;\r\n\r\n    struct User {\r\n        address payable userAddress;\r\n        uint units;\r\n    }\r\n\r\n    event userInitialized(\r\n        uint id,\r\n        address payable userAddress, \r\n        uint units\r\n    );\r\n\r\n    event unitsAdded (\r\n        address payable userAddress, \r\n        uint units\r\n    );\r\n\r\n    event billPaid (\r\n        address payable deployer,\r\n        address payable user,\r\n        uint amount\r\n    );\r\n\r\n    function initializeUser() external {\r\n        uCount++;\r\n        users[uCount] = User(msg.sender, 0);\r\n        emit userInitialized(uCount, msg.sender, 0);\r\n    }\r\n\r\n    function addUnit(uint _units) external {\r\n        require(_units >= 0);\r\n        uint _i;\r\n        User memory _user;\r\n        for(_i=1;_i<=uCount;++_i)\r\n            if(users[_i].userAddress==msg.sender)\r\n            {\r\n                _user=users[_i];\r\n                break;\r\n            }\r\n        _user.units = _user.units + _units;\r\n        users[_i] = _user;\r\n        emit unitsAdded(msg.sender,_units);\r\n    }\r\n\r\n    function payBill() public payable {\r\n        address(corporation).transfer(msg.value);\r\n        uint _i;\r\n        User memory _user;\r\n        for(_i=1;_i<=uCount;++_i)\r\n            if(users[_i].userAddress==msg.sender)\r\n            {\r\n                _user=users[_i];\r\n                break;\r\n            }\r\n        _user.units=0;\r\n        users[_i] = _user;\r\n        emit billPaid(corporation, msg.sender, msg.value);\r\n    }\r\n}\r\n",
  "sourcePath": "E:/CS/Hackathons/Devfolio online/HackChennai/project/src/contracts/Hercules.sol",
  "compiler": {
    "name": "solc",
    "version": "0.5.16+commit.9c3226ce.Emscripten.clang"
  },
  "schemaVersion": "3.4.1",
  "updatedAt": "2021-08-10T11:48:32.269Z",
  "networkType": "ethereum",
  "devdoc": {
    "methods": {}
  },
  "userdoc": {
    "methods": {}
  }
}